:060000000A128A11EE2F26
:100ECC00C034F934A434B034993492348234F834C4
:100EDC00803490347E088A007F0882000A128A11BE
:100EEC0070270A128A118000840A04087D060319EF
:100EFC000034FF0A0319FE0A742FF201F3019D2F2F
:100F0C00F401F5010130F4070318F50A0030F50778
:100F1C0003307502E83003197402031C962F972FC7
:100F2C00882F0130F2070318F30A0030F307710819
:100F3C007302031DA32F70087202031CA62FA72F88
:100F4C00862F0800203084002C30F6000408F700AF
:100F5C000A30F8007608840083130008F900F60ABA
:100F6C007708840079088000F70AF80BB02F8316F5
:100F7C000313880183120313AA01AB018312031319
:100F8C002A08203E84008313000888006430F00097
:100F9C000030F1000A128A1183270A128A110130DB
:100FAC0083120313AA070318AB0A0030AB072B08F4
:100FBC00803AFF0080307F02031DE62F0A302A02A0
:100FCC00031CE92FEA2FC42FC02F0A128A11002804
:100FDC0083133630FD000730FE006630FF002C30E6
:100FEC0084000A128A1174270A128A1183010A12C8
:040FFC008A11A82F7F
:00000001FF
